:020000040800F2
:1000000088040020010100080B100008F50E00080C
:1000100009100008490100087D13000800000000D5
:100020000000000000000000000000002F10000889
:100030004B010008000000002D10000831100008DE
:100040001B0100081B0100081B0100081B01000820
:100050001B0100081B0100081B0100081B01000810
:100060001B0100081B0100081B0100081B01000800
:100070001B0100081B0100081B0100081B010008F0
:100080001B0100081B0100081B0100081B010008E0
:100090001B0100081B0100081B0100081B010008D0
:1000A0001B0100081B0100081B0100081B010008C0
:1000B0001B0100081B0100081B0100081B010008B0
:1000C0001B0100081B0100081B0100081B010008A0
:1000D0001B010008711300081B0100081B01000828
:1000E0004D0100081B0100081B010008DFF80CD0BF
:1000F00000F018F8004800479D130008880400200D
:100100000648804706480047FEE7FEE7FEE7FEE7B1
:10011000FEE7FEE7FEE7FEE7FEE7FEE7A9100008C0
:10012000ED000008064C074D06E0E06840F00103D2
:1001300094E8070098471034AC42F6D3FFF7DAFF93
:10014000CC130008EC130008FEE7704710B54FF41D
:10015000806000F01BF84FF4006000F017F84FF4D7
:10016000805000F013F8BDE810404FF4005000F04C
:100170000DB8FEE731B500F0F9F8044600F0F6F8E6
:100180000099001B8842F9D338BD7047044910B567
:100190000A68024202D00860FFF7F7FF10BD0000B6
:1001A000140401402DE9F84FDFF890A100220AF174
:1001B000040B144601274FF00F090BF1040E00BF8A
:1001C0000B6807FA04F52B40AB4274D1DFF870C11D
:1001D0004E68A6EB0C0866452BD00DDC032E34D000
:1001E00005DC36B3012E19D0022E2FD11BE0112EC3
:1001F00016D0122E2AD119E0B8F5881F19D006DCC6
:10020000B8F5803F15D0B8F5801F1FD111E0B8F5C3
:10021000001F0ED0B8F5041F18D10AE0CA6815E017
:10022000CA68121D12E0CA6808320FE0CA680C32B0
:100230000CE08A682AB1012A4FF0080203D0456118
:1002400004E0042202E0056100E00022FF2B01D857
:10025000064601E000F104064FEA840501D9A5F144
:100260002005D6F800C009FA05F82CEA080C02FAB5
:1002700005F54CEA050CC6F800C04D68ED0057D5F1
:10028000304DAE6946F00106AE61AD6924F003065B
:1002900005F0010500952C4D06EB050CDCF8085027
:1002A000A6074FEA167809FA08F6B543274EB0427A
:1002B00002D1002610E03BE0254EB04201D10126DC
:1002C0000AE0244EB04201D1022605E0224EB0429F
:1002D00001D1032600E0042606FA08F62E43CCF8E6
:1002E00008604D68DAF80060ED03554601D51E43FD
:1002F00000E09E432E604D68DBF80060AD035D4674
:1003000001D51E4300E09E432E604D68DEF800607C
:10031000ED02754601D51E4300E09E432E604D68F8
:10032000AD020E4D2E6801D51E4300E09E432E60A7
:10033000641C102CFFF444AFBDE8F88F00040140AA
:1003400000001110001002400000014000080140B0
:10035000000C014000100140001401400C04014059
:100360000AB1016170470904FBE700000148006819
:10037000704700000400002002480168491C016029
:100380007047000004000020074810B5016841F0E4
:1003900010010160032000F087F8002000F006F84B
:1003A00000F016F8002010BD0020024010B50446F1
:1003B00000F050F94FF47A71B0FBF1F000F090FCCE
:1003C00000222146501E00F04FF8002010BD000012
:1003D0001D4808B5816941F001018161806900F023
:1003E00001000090032000F05FF8002211466FF03A
:1003F0000B0000F039F8002211466FF00A0000F0FF
:1004000033F8002211466FF0090000F02DF80022A9
:100410001146501F00F028F800221146101F00F06E
:1004200023F800221146901E00F01EF8002211460B
:10043000501E00F019F80548416821F0E06141F0D4
:100440008061416008BD00000010024000000140D2
:1004500000F01F02012191404009800000F1E020DE
:10046000C0F8001170470000F0B40E4B1B680C463A
:10047000C3F30223C3F10705042D00D90425191D78
:10048000072901D2002300E0DB1E012606FA05F150
:10049000491E214099409E40761E16403143F0BCD3
:1004A00000F0B4BD0CED00E0064900F0070208685A
:1004B0004FF6FF03184040EA0220034A1043086049
:1004C000704700000CED00E00000FA052DE9F04750
:1004D000DFF8708105460E46D8F8000000F00700EE
:1004E000B0420CD2D8F8001021F007013143C8F80F
:1004F0000010D8F8000000F00700B04277D128784B
:10050000514C800705D56068A96820F0F0000843C9
:1005100060602878C00759D06968012001290DD092
:10052000022929D05FF0020393FAA3F2B2FA82F211
:1005300042F02002520904D0226803E04FF4003355
:10054000F2E7626A93FAA3F3B3FA83F303F01F03AB
:10055000984002424BD0606820F00300084360607E
:10056000FFF704FF6968074641F2883001290DD082
:100570000229814617D025E04FF00073D4E700BF71
:10058000FFF7F4FEC11B494501D918E081466068B8
:10059000C0F381000128F3D118E000BFFFF7E6FEA9
:1005A000C11B49450BD86068C0F381000228F5D112
:1005B0000CE000BFFFF7DAFEC11B494502D903205A
:1005C000BDE8F087606810F00C0FF3D1D8F8001088
:1005D000404601F00701B1420BD9016821F0070143
:1005E00031430160006800F00700B04201D00120F3
:1005F000E6E72878400705D56068E96820F4E06000
:10060000084360602878000706D56068296920F4EF
:10061000605040EAC100606000F052F86168F0226A
:1006200092FAA2F201F0F001B2FA82F2D140074A46
:10063000515CC840064908600020FFF7B7FE002063
:10064000BEE700000020024000100240B213000884
:1006500000000020014800687047000000000020F2
:1006600008480949006849684FF4E06292FAA2F22A
:1006700001F4E061B2FA82F2D140044A515CC84010
:10068000704700000000002000100240C213000864
:1006900008480949006849684FF4605292FAA2F28A
:1006A00001F46051B2FA82F2D140044A515CC84070
:1006B000704700000000002000100240C213000834
:1006C00010B519A385B00FCB8DE80F001AA01B4BF6
:1006D000006804905A681A4802F00C0104291DD0E1
:1006E00008291BD14FF4701494FAA4F402F4701189
:1006F000B4FA84F4E140D2031DF8011010D55A6811
:100700004FF4003393FAA3F302F40032B3FA83F305
:10071000DA4004AB9A5CB0FBF2F0484305B010BD80
:1007200008484843FAE700000203040506070809E1
:100730000A0B0C0D0E0F10100102000000100240F9
:1007400000127A0000093D002DE9F84F04460078B8
:10075000F74DC0074FF0010625D068687704C0F355
:100760008100012807D06868C0F3810002281BD1EE
:100770006868C00318D597FAA7F0B0FA80F040F087
:100780002000400901D0286800E0686A97FAA7F1C4
:10079000B1FA81F101F01F0106FA01F108425ED0C1
:1007A000606800287CD05AE06068B0F5803F0BD0CC
:1007B00010B1B0F5A02F11D0286820F48030286047
:1007C000286820F4802002E0286840F48030286007
:1007D000606828B3FFF7CAFD80460BE0286840F444
:1007E00080202860F0E700BFFFF7C0FDA0EB080005
:1007F000642871D897FAA7F0B0FA80F040F0200092
:10080000400901D0286800E0686A97FAA7F1B1FAB8
:1008100081F101F01F0106FA01F10842E4D01EE067
:10082000FFF7A4FD804605E0FFF7A0FDA0EB080060
:100830006428DED897FAA7F0B0FA80F040F02000E4
:10084000400901D0286800E0686A97FAA7F1B1FA78
:1008500081F101F01F0106FA01F10842E4D120788C
:10086000DFF8D08280074FF000094FF002075BD518
:1008700068684FF0F80B10F00C0F07D06868C0F3F1
:10088000810002281CD16868C00319D497FAA7F028
:10089000B0FA80F040F02000400902D0286801E062
:1008A0008BE0686A97FAA7F1B1FA81F101F01F01B4
:1008B00006FA01F108422CD0206901287DD128E0F8
:1008C000206990B396FAA6F0B0FA80F048F820605C
:1008D000FFF74CFD824607E011E100BFFFF746FD40
:1008E000A0EB0A00022884D897FAA7F0B0FA80F0AB
:1008F00040F02000400901D0286800E0686A97FABB
:10090000A7F1B1FA81F101F01F0106FA01F10842E5
:10091000E4D028689BFAABF26169B2FA82F220F067
:10092000F80091400843286025E0FFE796FAA6F119
:10093000B1FA81F148F82190FFF718FD824605E0F1
:10094000FFF714FDA0EB0A000228CCD897FAA7F015
:10095000B0FA80F040F02000400901D0286800E0A3
:10096000686A97FAA7F1B1FA81F101F01F0106FA5E
:1009700001F10842E4D1207800076ED5A069B8B330
:1009800096FAA6F0B0FA80F008EB8000C0F8806418
:10099000FFF7ECFC824605E0FFF7E8FCA0EB0A005D
:1009A0000228A0D897FAA7F0B0FA80F040F06000D3
:1009B000B6EB501F02D128680CE062E197FAA7F06D
:1009C000B0FA80F040F06000B7EB501F01D1286A08
:1009D00000E0686A97FAA7F1B1FA81F101F01F010E
:1009E00006FA01F21042D7D00120FFF7C3FB34E032
:1009F000FFE796FAA6F1B1FA81F108EB8101C1F89F
:100A00008094FFF7B3FC824606E000BFFFF7AEFC20
:100A1000A0EB0A00022872D897FAA7F0B0FA80F08B
:100A200040F06000B6EB501F01D128680BE097FA48
:100A3000A7F0B0FA80F040F06000B7EB501F01D192
:100A4000286A00E0686A97FAA7F1B1FA81F101F02B
:100A50001F0106FA01F21042D8D12078400765D56F
:100A6000E86940F08050E861E869DFF8CCB000F058
:100A700080500090DBF8001041F48071CBF800103A
:100A8000FFF774FC824605E0FFF770FCA0EB0A005C
:100A9000642834D8DBF80000C005F5D5E0680128EB
:100AA0000AD008B1052813D0286A20F00100286276
:100AB000286A20F0040002E0286A40F00100286261
:100AC000E06841F2883B90B3FFF750FC82460BE0B0
:100AD000286A40F004002862EEE700BFFFF746FCFA
:100AE000A0EB0A0159450AD897FAA7F0B0FA80F0AE
:100AF00040F04000B6EB501F02D128680CE0A3E0A4
:100B000097FAA7F0B0FA80F040F04000B7EB501F22
:100B100001D1286A00E0686A97FAA7F1B1FA81F179
:100B200001F01F0206FA02F10842D7D031E005E0D9
:100B3000001002400000424200700040FFF716FC27
:100B4000824605E0FFF712FCA0EB0A0159457BD86D
:100B500097FAA7F0B0FA80F040F04000B6EB501FD3
:100B600001D128680BE097FAA7F0B0FA80F040F0C6
:100B70004000B7EB501F01D1286A00E0686A97FA7D
:100B8000A7F1B1FA81F101F01F0206FA02F1084261
:100B9000D8D1E06980B36968C1F38101022970D0BE
:100BA0004FF080714F000228484609D091FAA1F118
:100BB000B1FA81F148F82100FFF7D8FB044669E05B
:100BC0008A4691FAA1F1B1FA81F1C14648F82100B3
:100BD000FFF7CCFB804605E0FFF7C8FBA0EB080061
:100BE000022854D897FAA7F0B0FA80F040F020001D
:100BF000400902D0286801E061E0686A97FAA7F12D
:100C0000B1FA81F101F01F0106FA01F10842E3D1C6
:100C1000206AB0F5803F05D16868A16820F40030F3
:100C200008436860D4E908010843696821F4741135
:100C3000084368609AFAAAF0B0FA80F049F8206098
:100C4000FFF794FB044606E021E000BFFFF78EFBB0
:100C5000001B02281BD897FAA7F0B0FA80F040F0EA
:100C60002000400901D0286800E0686A97FAA7F1DF
:100C7000B1FA81F101F01F0106FA01F10842E5D055
:100C80001DE01EE0FFF772FB001B022802D90320C3
:100C9000BDE8F88F97FAA7F0B0FA80F040F0200096
:100CA000400901D0286800E0686A97FAA7F1B1FA14
:100CB00081F101F01F0106FA01F10842E2D10020A2
:100CC000E6E70120E4E74FF0E0210428086903D0BB
:100CD00020F004000861704740F00400FAE7704714
:100CE00010B5401EB0F1807F01D3012010BD4FF040
:100CF000E02460610F21601700F088F90020A061F6
:100D000007202061002010BD10B5FFF7E8FF10BDDF
:100D10007047000038B5044600680168C26811F0E9
:100D2000010F02F4807204D01AB1E16B41F00101AD
:100D3000E1630168C1F34002416901F0010122B1A0
:100D400019B1E26B42F00402E2630268C2F380026E
:100D500022B119B1E26B42F00202E2630268C2F30F
:100D6000C00222B119B1E16B41F00801E1630168F1
:100D7000C068C1F3401100F0200019B110B1204645
:100D800000F0B6F920680168C068C1F3C01100F036
:100D9000800019B110B1204600F0B6FA2168086849
:100DA000CA68C0F3801002F04002012570B16AB138
:100DB000CA68204622F04002CA6094F839103229ED
:100DC00011D080F8395000BF00F093F8E06B002894
:100DD00008D0206801684068009084F839502046A7
:100DE000FFF796FF38BD222180F83910ECE770B587
:100DF000040004D094F83900002510B106E0012069
:100E000070BD84F83850204600F020F8022084F8A5
:100E100039002068C16821F40051C160204600F00B
:100E2000BBF92068016921F49041016120684169A2
:100E300021F02A0141612068C16841F40051C1607C
:100E4000E563012084F83900002070BD70B5244EA0
:100E500003680024234902200322234D86B0B342B5
:100E600021D18B6943F480438B618969039201F43A
:100E7000804104910102CDE9001069462846FFF740
:100E800091F92815CDE90004694628460294FFF738
:100E900089F9002211462520FFF7E6FA2520FFF701
:100EA000D7FA06B070BD114EB342FAD1CB6943F404
:100EB0000033CB61C969039201F40031049104212C
:100EC000CDE9001069462846FFF76CF90820CDE906
:100ED0000004694628460294FFF764F9E1E7000040
:100EE000003801400010024000080140004400406A
:100EF00070477047FEE7000030B5244885B081692F
:100F000041F020018161816901F020010491816932
:100F100041F004018161816901F00401049181695A
:100F200041F0080181618069194D00F008000490CA
:100F3000002278212846FFF713FA4FF470500090F2
:100F4000144801900020029069462846FFF72AF9CC
:100F500018200124CDE900040320039069462846A7
:100F6000FFF720F96020CDE90004022003906946D4
:100F70002846FFF717F9002211462820FFF774FAD8
:100F80002820FFF765FA05B030BD000000100240D0
:100F9000000C0140000031100C4810B50A490160F6
:100FA0004FF4E1314160002181600C22C160C0E951
:100FB00004128161C161FFF71AFF002803D0BDE868
:100FC0001040FFF7D6B810BD0038014008000020DF
:100FD0000C4810B50A4901604FF4E131416000212D
:100FE00081600C22C160C0E904128161C161FFF718
:100FF000FEFE002803D0BDE81040FFF7BAB810BDD0
:101000000044004048000020FEE770470907090E31
:10101000002806DA00F00F0000F1E02080F8141D2F
:10102000704700F1E02080F8001470477047704767
:1010300010B5FFF7A1F9BDE81040FFF765BE30B568
:101040008FB001210804CDE900100024029402258C
:101050000491CDE907504FF4E01009906846FFF77E
:1010600073FB00B1FEE70F20CDE90A054FF4806065
:10107000CDE90C4002210AA80E94FFF727FA00B12F
:10108000FEE7FFF7E7FA4FF47A71B0FBF1F0FFF7F4
:1010900027FE0420FFF717FE00221146501EFFF71F
:1010A000E3F90FB030BD00000D48016841F00101C7
:1010B000016041680B4A1140416001680A4A1140D1
:1010C0000160016821F480210160416821F4FE0182
:1010D00041604FF41F0181600449C00308607047FC
:1010E000001002400000FFF8FFFFF6FE08ED00E0F0
:1010F00010B590F83910222903D0322901D00220EE
:1011000010BD8168B1F5805F11D0016900290168C7
:101110001FD0496801F07F03816A4A1C82620B700C
:10112000C18D491E0904090CC18518D030E002693F
:10113000816A002A0268526805D0D2B20A80816AA8
:10114000491C8162ECE7C2F308020A80816A891CAB
:10115000F7E74A68816A4B1C83620A70E0E701681E
:10116000CA6822F02002CA6090F83910322911D0E2
:101170000168CA6822F48072CA6001684A6922F074
:1011800001024A615FF0010180F83910FFF7B0FEFB
:10119000002010BD1221F7E72DE9F0410446006858
:1011A0000169E26821F44051114301612169A0689D
:1011B0000843616908432168CA6841F20C639A4395
:1011C0000243CA6020684169A26921F44071114359
:1011D00041614C4920686425322688423CD1FFF7A2
:1011E00057FA00EBC00101EB001061688900B0FB09
:1011F000F1F7FFF74DFA00EBC00101EB0010616859
:10120000B0468900B0FBF1F0B0FBF5F06FF01801CB
:10121000484307EB800106EB0110B0FBF5F000F04E
:10122000F006FFF735FA00EBC00101EB0010616832
:101230008900B0FBF1F0B0FBF5F006EB0016FFF70C
:1012400027FA00EBC00101EB001061688900B0FBD8
:10125000F1F7FFF71DFA3BE0FFF702FA00EBC001E0
:1012600001EB001061688900B0FBF1F7FFF7F8F9B6
:1012700000EBC00101EB00106168B0468900B0FBD3
:10128000F1F0B0FBF5F06FF01801484307EB800177
:1012900006EB0110B0FBF5F000F0F006FFF7E0F907
:1012A00000EBC00101EB001061688900B0FBF1F0B8
:1012B000B0FBF5F006EB0016FFF7D2F900EBC0012A
:1012C00001EB001061688900B0FBF1F7FFF7C8F986
:1012D00000EBC00101EB001061688900B0FBF1F088
:1012E000B0FBF5F06FF01801484307EB800108EB05
:1012F0000110B0FBF5F0216800F00F003044886069
:10130000BDE8F0810038014090F83910122903D06F
:10131000322901D0022070478168B1F5805F016AEF
:101320000BD04A1C0262026809785160C18C491EC8
:101330000904090CC1840ED017E009880268C1F3C2
:101340000801516001690029016A02D0491C01624B
:10135000ECE7891CFBE70168CA6822F08002CA60DA
:101360000068C16841F04001C16000207047000082
:101370000148FFF7CFBC000008000020FEE702E0B4
:1013800008C8121F08C1002AFAD170477047002010
:1013900001E001C1121F002AFBD17047FEF7F4FFE4
:1013A000FFF74DFEFFF7A8FDFFF7F6FDFFF710FE74
:1013B000FEE7000000000000000001020304060731
:1013C000080900000000010203040000EC130008FB
:1013D00000000020080000007E130008F41300083D
:1013E00008000020800400008E13000800A24A04B8
:0413F00000000000F9
:04000005080000ED02
:00000001FF
