:020000040800F2
:100000003805002001010008971500089D1300081D
:100010009515000875010008A11B000800000000EC
:10002000000000000000000000000000F9160008B9
:100030007D03000800000000B9150008FB16000849
:100040001B0100081B0100081B0100081B01000820
:100050001B0100081B0100081B0100081B01000810
:100060001B0100081B0100081B0100081B01000800
:100070001B0100081B0100081B0100081B010008F0
:100080001B0100081B0100081B0100081B010008E0
:100090001B0100081B0100081B0100081B010008D0
:1000A0001B0100081B0100081B0100081B010008C0
:1000B000B91700081B0100081B0100081B010008FC
:1000C0001B0100081B0100081B0100081B010008A0
:1000D0001B0100081B0100081B010008951B0008FC
:1000E0007F0300081B0100081B010008DFF80CD08B
:1000F00000F02EF8004800475D1E0008380500207B
:100100000648804706480047FEE7FEE7FEE7FEE7B1
:10011000FEE7FEE7FEE7FEE7FEE7FEE771170008F1
:10012000ED00000830B50B460146002020220124D6
:1001300009E021FA02F59D4205D303FA02F5491BB5
:1001400004FA02F52844151EA2F10102F1DC30BDCB
:10015000064C074D06E0E06840F0010394E8070014
:1001600098471034AC42F6D3FFF7C4FF001F0008D5
:10017000201F0008FEE7000010B5114CB0F5805FAD
:10018000618806D0B0F5804F08D0B0F5005F11D07F
:100190000AE081F4805060800AA003E081F480705E
:1001A000608009A001F0FEFC608801F007FA0120E0
:1001B000207010BD81F01000608004A0F2E7000004
:1001C00000000020610000006200000063000000E9
:1001D00001494880704700000000002070B52B489E
:1001E00001F0B4FD00284FD12949284801F0C4FD91
:1001F000274C2178442947D126A001F0D3FC611C6B
:10020000224801F0B9FD617844293DD126A001F0D2
:10021000C9FCA11C1D4801F0AFFDA17827A001F089
:10022000C1FC1A49A2781639184801F0BCFD174DD7
:1002300026A0163D297801F0B5FC697827A001F0C9
:10024000B1FCA97829A001F0ADFCE9782BA001F060
:10025000A9FC287810B9002000F06CF82878012853
:1002600009D16878A97841EA0020A08001F0A6F9B8
:10027000A088FFF7ADFF2878022805D1A978687813
:10028000BDE8704001F0C8B970BD00002C0100202D
:100290000400002068656164206F6E65206973202A
:1002A00025640A0D00000000686561642074776FA2
:1002B0002069732025640A0D00000000646C656EDF
:1002C0006774682069732025640A0D006461746195
:1002D00020312069732025640A0D00006461746177
:1002E00020322069732025640A0D00006461746166
:1002F00020332069732025640A0D00006461746155
:1003000020342069732025640A0D0000074910B5C8
:10031000322201F1480001F061FD05490122C81EA9
:100320008068BDE8104000F095BF0000E4000020A8
:10033000070000200E4944220A704A7005228A7084
:10034000002290B10120C8700A480088030A0B718E
:1003500048718A715520C871782008720648642354
:1003600009220349806800F0BBBFCA70ECE70000B7
:10037000200100201000002004000020704710B56C
:100380004FF4805000F058F84FF4005000F054F84B
:10039000BDE810404FF4804000F04EB810B590F822
:1003A00021100024022903D00421816301243DE0AF
:1003B00001680A6822F00E020A6001680A6822F0E9
:1003C00001020A601A4A0168914201D1012121E02B
:1003D000174A1432914201D110211BE0144A2832ED
:1003E000914201D1891515E0114A3C32914201D167
:1003F00089140FE00E4A5032914202D14FF48031FD
:1004000008E00B4A6432914202D14FF4801101E0BE
:100410004FF08071064A083A5160012180F821109E
:10042000002180F82010416B01B18847204610BDA3
:1004300008000240FFF7A0BE044910B50A68024256
:1004400002D00860FFF7F6FF10BD00001404014061
:100450002DE9F84FDFF890A100220AF1040B1446B1
:1004600001274FF00F090BF1040E00BF0B6807FACC
:1004700004F52B40AB4274D1DFF870C14E68A6EB97
:100480000C0866452BD00DDC032E34D005DC36B3CA
:10049000012E19D0022E2FD11BE0112E16D0122EB4
:1004A0002AD119E0B8F5881F19D006DCB8F5803FCD
:1004B00015D0B8F5801F1FD111E0B8F5001F0ED080
:1004C000B8F5041F18D10AE0CA6815E0CA68121D01
:1004D00012E0CA6808320FE0CA680C320CE08A6881
:1004E0002AB1012A4FF0080203D0456104E004223A
:1004F00002E0056100E00022FF2B01D8064601E082
:1005000000F104064FEA840501D9A5F12005D6F8CB
:1005100000C009FA05F82CEA080C02FA05F54CEAC5
:10052000050CC6F800C04D68ED0057D5304DAE69DA
:1005300046F00106AE61AD6924F0030605F0010541
:1005400000952C4D06EB050CDCF80850A6074FEA89
:10055000167809FA08F6B543274EB04202D10026B4
:1005600010E03BE0254EB04201D101260AE0244EC6
:10057000B04201D1022605E0224EB04201D103264D
:1005800000E0042606FA08F62E43CCF808604D6811
:10059000DAF80060ED03554601D51E4300E09E43A6
:1005A0002E604D68DBF80060AD035D4601D51E434B
:1005B00000E09E432E604D68DEF80060ED02754657
:1005C00001D51E4300E09E432E604D68AD020E4DE6
:1005D0002E6801D51E4300E09E432E60641C102C43
:1005E000FFF444AFBDE8F88F000401400000111093
:1005F000001002400000014000080140000C0140D2
:1006000000100140001401400C040140C2684A403F
:10061000C26070470AB1016170470904FBE700003E
:100620000148006870470000180000200248016877
:10063000491C01607047000018000020074810B5F1
:10064000016841F010010160032000F08BF80020E8
:1006500000F006F800F018F8002010BD002002405D
:1006600010B5044607484FF47A710068B0FBF1F00A
:1006700000F01FFB00222146501E00F053F800201E
:1006800010BD00001C0000201E4808B5816941F023
:1006900001018161806900F001000090032000F0F9
:1006A00061F8002211466FF00B0000F03BF80022C9
:1006B00011466FF00A0000F035F8002211466FF085
:1006C000090000F02FF800221146501F00F02AF810
:1006D00000221146101F00F025F800221146901E3E
:1006E00000F020F800221146501E00F01BF80648CA
:1006F000416821F0E0614160416841F00071416072
:1007000008BD0000001002400000014000F01F0280
:10071000012191404009800000F1E020C0F8001163
:1007200070470000F0B40E4B1B680C46C3F3022365
:10073000C3F10705042D00D90425191D072901D28D
:10074000002300E0DB1E012606FA05F1491E2140C8
:1007500099409E40761E16403143F0BC00F01CBF0D
:100760000CED00E0064900F0070208684FF6FF03B1
:10077000184040EA0220034A104308607047000016
:100780000CED00E00000FA052DE9F047DFF83C81B0
:1007900005460E46D8F8000000F00700B0420CD223
:1007A000D8F8001021F007013143C8F80010D8F83C
:1007B000000000F00700B04263D12878444C800765
:1007C00005D56068A96820F0F000084360602878CB
:1007D000C00745D06868012816D02168022816D0C5
:1007E000890700294DDA616821F003010143616046
:1007F000FFF716FF6968074641F2883001290FD0DC
:100800000229814619D027E021688903E9E7890197
:10081000E7E700BFFFF704FFC11B494501D918E016
:1008200081466068C0F381000128F3D118E000BF61
:10083000FFF7F6FEC11B49450BD86068C0F3810085
:100840000228F5D10CE000BFFFF7EAFEC11B4945C5
:1008500002D90320BDE8F087606810F00C0FF3D1D7
:10086000D8F80010404601F00701B1420BD90168E9
:1008700021F0070131430160006800F00700B04239
:1008800001D00120E6E72878400705D56068E968CF
:1008900020F4E060084360602878000706D56068AF
:1008A000296920F4605040EAC100606000F03CF823
:1008B0006168084AC1F30311515CC84006490860E9
:1008C0000020FFF7CDFE0020C4E70000002002401A
:1008D00000100240E81E00081C00002001480068CB
:1008E000704700001C000020044805490068496862
:1008F000044AC1F30221515CC84070471C0000202B
:1009000000100240F81E00080448054900684968C4
:10091000044AC1F3C221515CC84070471C0000204A
:1009200000100240F81E000810B512A385B00FCBCE
:100930008DE80F0013A0144B006804905A68134808
:1009400002F00C0104290FD008290DD1C2F3834411
:10095000D2031DF8041009D55A6804ABC2F3404213
:100960009A5CB0FBF2F0484305B010BD084848431C
:10097000FAE7000002030405060708090A0B0C0D3C
:100980000E0F1010010200000010024000127A0049
:1009900000093D002DE9F84F04460078B94DC00725
:1009A00048D06868C0F38100012807D06868C0F3A8
:1009B0008100022809D16868C00306D52868800331
:1009C00038D5606800286FD034E06068B0F5803FAB
:1009D0000BD010B1B0F5A02F11D0286820F48030D2
:1009E0002860286820F4802002E0286840F48030E5
:1009F0002860606888B1FFF713FE064609E02868A2
:100A000040F480202860F0E7FFF70AFE801B64288E
:100A100075D828688003F7D50CE0FFF701FE06467D
:100A200005E000BFFFF7FCFD801B6428F0D82868B4
:100A30008003F7D42078944E80074FF001094FF0DF
:100A400000083BD5686810F00C0F07D06868C0F349
:100A50008100022809D16868C00306D4286880078D
:100A600014D5206901281FD110E02069B0B1C6F863
:100A70000090FFF7D5FD074605E000BFFFF7D0FD6A
:100A8000C01B0228C4D828688007F7D52868616988
:100A900020F0F80040EAC10028600FE0C6F80080AE
:100AA000FFF7BEFD074606E0E9E000BFFFF7B8FD2F
:100AB000C01B022823D828688007F7D420780007B5
:100AC0002CD57248A169D9B1C0F80090FFF7A8FDF4
:100AD000074604E0FFF7A4FDC01B02280FD8686A90
:100AE0008007F7D56A484FF4FA510068B0FBF1F07F
:100AF000009000BF0098411E0091FAD20EE080E005
:100B0000C0F80080FFF78CFD074604E0FFF788FD82
:100B1000C01B022875D8686A8007F7D42078400780
:100B200060D5E8690027C00008D4E86940F080502B
:100B3000E861E869012700F080500090554801689D
:100B4000C90513D40168834641F480710160FFF741
:100B500067FD824606E000BFFFF762FDA0EB0A00DA
:100B600064284ED8DBF80000C005F5D5E068012800
:100B70000AD008B1052813D0286A20F001002862A5
:100B8000286A20F0040002E0286A40F00100286290
:100B9000E06841F2883B98B1FFF742FD82460BE0E6
:100BA000286A40F004002862EEE700BFFFF738FD36
:100BB000A0EB0A0159455AD8286A8007F6D50CE0FF
:100BC000FFF72EFD824605E0FFF72AFDA0EB0A01A4
:100BD00059454CD8286A8007F6D41FB1E86920F03F
:100BE0008050E861E06988B36968C1F38101022936
:100BF00045D00228C6F8608004D0FFF711FD0446F6
:100C000038E034E0FFF70CFD074604E0FFF708FD8D
:100C1000C01B02282BD828688001F7D4206AB0F5C1
:100C2000803F05D16868A16820F4003008436860FF
:100C3000D4E908010843696821F474110843686025
:100C4000C6F86090FFF7ECFC044606E015E000BF34
:100C5000FFF7E6FC001B022809D828688001F7D5B9
:100C60000BE000BFFFF7DCFC001B022802D90320C9
:100C7000BDE8F88F28688001F4D40020F8E701204F
:100C8000F6E70000001002400000424280044242A9
:100C90001C000020007000404FF0E021042808698B
:100CA00003D020F004000861704740F00400FAE728
:100CB000704710B5401EB0F1807F01D3012010BDF8
:100CC0004FF0E02460610F21601700F065FC002008
:100CD000A06107202061002010BD10B5FFF7E8FFDC
:100CE00010BD7047704730B590F83C20012A20D0E5
:100CF000012280F83C20022380F83D3003685C68C4
:100D000024F070045C6003685C680D682C435C60D0
:100D100003689C6824F080049C6003689C684968B0
:100D20000C439C6080F83D20002180F83C10084670
:100D300030BD022030BD10B5040003D094F83D0052
:100D400010B107E0012010BD002084F83C002046CF
:100D500000F00CF8022084F83D00211D206800F00E
:100D600031FD012084F83D00002010BD08B5006869
:100D7000B0F1804F12D10A48C16941F00101C1614F
:100D8000C069002200F00100009011461C20FFF70E
:100D9000C9FCBDE808401C20FFF7B8BC08BD000036
:100DA000001002400168CA6842F00102CA6000688F
:100DB000016841F0010101600020704770B50446F0
:100DC00090F83C00012817D0012584F83C500220FF
:100DD00084F83D002068826822F0770222F47F4286
:100DE00082600868502837D00DDC202859D005DCF7
:100DF00088B3102841D151E0022070BD302853D073
:100E000040283AD13FE060282ED070280BD0B0F5B2
:100E1000805F03D0B0F5005F2FD110E020688168BB
:100E200021F0070115E0CB68D1E90121206800F02D
:100E3000FFFC2168886840F0770088601DE0CB687F
:100E4000D1E90121206800F0F3FC2068816841F4B9
:100E50008041816011E01EE0CA684968206800F0A6
:100E6000F9FC5021206806E0CA684968206800F053
:100E700002FD6021206800F0E5FC84F83D50002070
:100E800084F83C0070BDCA684968206800F0E2FC44
:100E900040212068EFE700212068ECE7102120685E
:100EA000E9E720212068E6E730212068E3E7704782
:100EB00070B50446006801694FF00005C943890711
:100EC00015D4C168C943890711D4E91E0161012005
:100ED0002077206880698007204602D0FFF7E7FF6F
:100EE00004E000F098F8204600F096F82577206896
:100EF0000169C943490717D4C168C943490713D4D5
:100F00006FF004010161022020772068806910F4ED
:100F1000407F204602D0FFF7CAFF04E000F07BF8D4
:100F2000204600F079F8257720680169C943090750
:100F300016D4C168C943090712D46FF008010161D2
:100F4000042020772068C0698007204602D0FFF780
:100F5000AEFF04E000F05FF8204600F05DF8257772
:100F600020680169C943C90617D4C168C943C906C5
:100F700013D46FF010010161082020772068C06948
:100F800010F4407F204602D0FFF791FF04E000F00C
:100F900042F8204600F040F8257720680169C943EF
:100FA000C90708D1C168C943C90704D1891E0161B5
:100FB000204600F033F820680169C943090609D4C6
:100FC000C168C943090605D46FF08001016120465C
:100FD000FFF787FE20680169C943490609D4C16843
:100FE000C943490605D46FF040010161204600F075
:100FF00021F820680169C94389060BD4C168C94337
:10100000890607D46FF0200101612046BDE87040D9
:10101000FFF768BE70BD7047704700000068B0F110
:10102000804F04D14FF400510148FFF7EFBA7047E9
:10103000001001407047704770B5026804461068A0
:10104000D168536910F00F0F51D003F0010501F47E
:10105000907635435DD0C20705D0CA0503D5E26B53
:1010600042F00102E263420705D5DA0703D0E26BE2
:1010700042F00202E263820705D5DA0703D0E26B91
:1010800042F00402E263020705D5DA0703D0E26BFF
:1010900042F00802E263E26B002A34D0800604D5F5
:1010A000880602D5204600F00EFC20684069E16BFE
:1010B000C0F3801001F008010143204624D000F065
:1010C000F4FB2068416949061AD5416921F04001C5
:1010D0004161606BA0B11B494163606BFFF75EF932
:1010E000002810D0606B416BBDE870400847830654
:1010F0000FD58B060DD52046BDE8704000F0E3BB50
:101100002046FFF798FF70BDFFF795FF0020E063D2
:1011100070BD030606D50B0604D52046BDE8704019
:1011200000F0D4BC4006F3D54806F1D5D16820467E
:1011300021F04001D160202184F8391000F02DF910
:1011400070BD00009B18000870B5040004D094F82E
:101150003900002510B106E0012070BD84F8385038
:10116000204600F023F8242084F839002068C16864
:1011700021F40051C160204600F0F0FB20680169B5
:1011800021F4904101612068416921F02A01416107
:101190002068C16841F40051C160E563202084F8F3
:1011A000390084F83A00002070BD000030B5244DAD
:1011B0000368002423480221032285B0AB421AD1E0
:1011C000C36943F40033C361C0691F4D00F40030AC
:1011D00004900420CDE90001039269462846FFF7F8
:1011E00037F90820CDE90004694628460294FFF744
:1011F0002FF905B030BD154DAB42FAD1C36943F4A8
:101200008023C361C069039200F4802004902815F4
:10121000CDE900010E4D69462846FFF719F9E8149B
:10122000CDE90004694628460294FFF711F900222F
:1012300011462720FFF776FA2720FFF767FAD8E74D
:1012400000440040001002400008014000480040F7
:10125000000C014090F83A30202B22D1F9B1F2B1C4
:1012600090F83830012B1CD081628285C285002124
:10127000C163222280F83A2080F838100168CA68D9
:1012800042F48072CA6001684A6942F001024A6110
:101290000068C16841F02001C16000207047012052
:1012A000704702207047000010B500680849884266
:1012B0000CD108480178084800F097FD0748012242
:1012C00004490068BDE81040FFF7C4BF10BD00002E
:1012D00000480040070000202C0100200C000020E6
:1012E0002DE9F843044690F839001F4616460D468E
:1012F000202850D1A5B19EB194F8380001284AD0D9
:10130000012084F838004FF00008C4F83C80212008
:1013100084F83900FFF784F9A6848146E68426E044
:101320000120BDE8F883E08C401EE084A0684B46B5
:10133000B0F5805F4FF000024FF08001204600972B
:1013400003D000F0F4FBE8B90DE000F0F0FBC8B901
:1013500028882168C0F308004860206908B16D1C26
:1013600005E0AD1C03E0216815F8010B4860E08C36
:101370000028D8D14B46002240212046009700F09B
:10138000D6FB08B10320CCE7202084F8390084F88C
:1013900038800020C5E70220C3E77047FEE7000061
:1013A0002DE9F041324886B0816941F01001816138
:1013B000816901F010010491816941F0200181618E
:1013C000816901F020010491816941F0040181618A
:1013D000816901F004010491816941F00801816192
:1013E0008069244E00F008004FF40054049000225D
:1013F00021463046FFF70EF91F4F01227021384673
:10140000FFF708F9DFF87480002238214046FFF723
:1014100001F900940124032569463046039501949F
:10142000FFF716F87020CDE90004694603953846A9
:10143000FFF70EF84FF4E0400090114801900020B3
:10144000029069464046FFF703F83820CDE90004D2
:10145000694603954046FEF7FBFF0022114628200F
:10146000FFF760F92820FFF751F906B0BDE8F081D9
:10147000001002400010014000080140000C014033
:101480000000311010B5184886B04FF0804101605F
:1014900048F6A0410024C0E9011440F2F311C0E96C
:1014A000031480218161FFF746FC18B13F210FA092
:1014B00000F077FB4FF48050009069460A48FFF730
:1014C0007DFC18B1452109A000F06BFB049404A930
:1014D00005480594FFF707FC002803D04C2103A022
:1014E00000F05FFB06B010BD240000202E2E2F530D
:1014F00072632F74696D2E63000000000D4810B5F3
:101500000B4901604FF4E1314160002181600C2200
:10151000C160C0E904128161C161FFF715FE0028B6
:1015200005D0BDE81040432103A000F03ABB10BD38
:1015300000440040640000202E2E2F5372632F754C
:10154000736172742E6300000D4810B50B49016081
:101550004FF4E1314160002181600C22C160C0E99B
:1015600004128161C161FFF7EFFD002805D0BDE8DD
:101570001040562103A000F014BB10BD00480040ED
:10158000A40000202E2E2F5372632F757361727486
:101590002E630000FEE770470907090E002806DAEF
:1015A00000F00F0000F1E02080F8141D704700F1FA
:1015B000E02080F8001470477047000070B5154CAB
:1015C00005462088A84223D00C22294600F0B4FB0F
:1015D00028B1202000F07AFC102000F031FC082215
:1015E0002946208800F0A8FB28B1102000F06EFCEE
:1015F000402000F025FC04222946208800F09CFBB6
:1016000028B1082000F062FC202000F019FC2580A1
:1016100070BD00001000002070B5344B344D354CC7
:10162000B1B1012913D1012843D002284FD003289A
:101630000DD1012208211846FEF7ECFF00222021DF
:101640002846FEF7E7FF208840F01000208070BD9C
:10165000012812D002281ED00328F8D10022082128
:101660001846FEF7D7FF012220212846FEF7D2FFB9
:10167000208841F201110840E8E7002220211846A5
:10168000FEF7C8FF012210212846FEF7C3FF20887D
:1016900040F21111EFE7002210211846FEF7BAFFC1
:1016A000012240212846FEF7B5FF208841F21101B2
:1016B000E1E7012220211846FEF7ACFF00221021AD
:1016C0002846FEF7A7FF208840F48050BEE701229D
:1016D00010211846FEF79EFF002240212846FEF703
:1016E00099FF208840F48070B0E70000000C0140B2
:1016F0000008014010000020704710B5FEF796FF6B
:10170000BDE81040FFF7E9BA30B58FB001210804F9
:10171000CDE900100024029402250491CDE9075080
:101720004FF4E01009906846FFF734F900B1FEE786
:101730000F20CDE90A058020CDE90C0402210AA87A
:101740000E94FFF721F800B1FEE7FFF7C7F84FF45A
:101750007A71B0FBF1F0FFF7ACFA0420FFF79CFAC6
:1017600000221146501EFEF7DDFF0FB030BD000015
:101770000D48016841F00101016041680B4A1140C8
:10178000416001680A4A11400160016821F480212A
:101790000160416821F4FE0141604FF41F01816046
:1017A0000449C00308607047001002400000FFF8C1
:1017B000FFFFF6FE08ED00E00148FFF779BB0000EF
:1017C00024000020F0B50268164B174C174D4FF05F
:1017D0008047984205D0B84203D0A04201D0A84229
:1017E00003D122F070064A683243984205D0B842CD
:1017F00003D0A04201D0A84203D122F44074CA68A9
:10180000224322F080044A69224302608A68C2624D
:101810000A688262984201D109690163012141612C
:10182000F0BD0000002C0140000400400008004012
:1018300010B5846842EA032224F47F440A43224319
:10184000826010BD826822F070020A4342F00701F4
:101850008160704710B5036A046A24F001040462D1
:10186000846924F0F00444EA021423F00A020A43D3
:101870008461026210BD10B5036A23F01003036295
:101880008369046A23F4704343EA023224F0A0031C
:1018900043EA01118261016210BD10B5406A002166
:1018A000C185C184FFF7C7FB10BD0168CA6822F477
:1018B0009072CA6001684A6922F001024A612021DF
:1018C00080F83A10704710B590F83A10222901D0EC
:1018D000022010BD8168B1F5805F11D00169002937
:1018E00001681FD0496801F07F03816A4A1C826247
:1018F0000B70C18D491E0904090CC18518D02BE05D
:101900000269816A002A0268526805D0D2B20A8050
:10191000816A491C8162ECE7C2F308020A80816A8D
:10192000891CF7E74A68816A4B1C83620A70E0E70A
:101930000168CA6822F02002CA600168CA6822F4FD
:101940008072CA6001684A6922F001024A6120215E
:1019500080F83A10FFF7A8FC002010BD2DE9F041F7
:10196000044600680169E26821F4405111430161B5
:101970002169A0680843616908432168CA6841F287
:101980000C639A430243CA6020684169A26921F44A
:101990004071114341614C492068642532268842D8
:1019A0003CD1FEF7B1FF00EBC00101EB0010616814
:1019B0008900B0FBF1F7FEF7A7FF00EBC00101EBD8
:1019C00000106168B0468900B0FBF1F0B0FBF5F0A3
:1019D0006FF01801484307EB800106EB0110B0FBE4
:1019E000F5F000F0F006FEF78FFF00EBC00101EB11
:1019F000001061688900B0FBF1F0B0FBF5F006EB78
:101A00000016FEF781FF00EBC00101EB00106168DA
:101A10008900B0FBF1F7FEF777FF3BE0FEF764FFCC
:101A200000EBC00101EB001061688900B0FBF1F729
:101A3000FEF75AFF00EBC00101EB00106168B046F1
:101A40008900B0FBF1F0B0FBF5F06FF018014843EE
:101A500007EB800106EB0110B0FBF5F000F0F0069B
:101A6000FEF742FF00EBC00101EB00106168890046
:101A7000B0FBF1F0B0FBF5F006EB0016FEF734FF1B
:101A800000EBC00101EB001061688900B0FBF1F7C9
:101A9000FEF72AFF00EBC00101EB0010616889002E
:101AA000B0FBF1F0B0FBF5F06FF01801484307EB25
:101AB000800108EB0110B0FBF5F0216800F00F0089
:101AC00030448860BDE8F0810038014090F839105A
:101AD000212901D0022070478168B1F5805F016A39
:101AE0000BD04A1C0262026809785160C18C491E01
:101AF0000904090CC1840ED017E009880268C1F3FB
:101B00000801516001690029016A02D0491C016283
:101B1000ECE7891CFBE70168CA6822F08002CA6012
:101B20000068C16841F04001C160002070472DE9A4
:101B3000F041984617460E460446069D1DE0681C77
:101B40001BD02DB1FEF76CFDA0EB0800A84214D904
:101B50002068C16821F4D071C1602068416921F01A
:101B600001014161202084F8390084F83A00002006
:101B700084F838000320BDE8F0812068006836EA68
:101B8000000004D00020B842D9D00020F3E70120A3
:101B9000F9E700000148FFF74FBA0000A400002059
:101BA000FEE7FEE70FB4054B10B503A9044A0298FF
:101BB00000F018F810BC5DF814FB0000291E0008A6
:101BC0002000002002E008C8121F08C1002AFAD134
:101BD00070477047002001E001C1121F002AFBD1AD
:101BE000704700002DE9FF4F89B09B460446002551
:101BF00006E025280BD05A460B999047641C6D1CB3
:101C000020780028F5D10DB02846BDE8F08F0027D8
:101C1000B8460122474900E0074314F8013F203B42
:101C200002FA03F00842F7D120782E2819D114F8CF
:101C3000010F47F004072A280ED06FF02F022078FA
:101C4000A0F1300109290CD808EB880102EB410111
:101C500000EB0108641CF2E70A98641C50F8048B3E
:101C60000A9020780028CED0642808D0692806D0B1
:101C700075281ED05A460B9990476D1C58E00A995A
:101C80004FF00A0901C90A91002802DA40422D21C9
:101C900002E0390504D52B218DF82010012103E045
:101CA000F90704D02021F7E78A4608AE0DE00021AD
:101CB000FAE70A994FF00A0901C90A91F7E749467C
:101CC000FEF730FA303106F8011D0028F7D1ADEBF0
:101CD000060000F12009780701D44FF00108C8453B
:101CE00002DDA8EB090000E000208046002706E0A6
:101CF00008A85A46C05D0B9990476D1C7F1C57453C
:101D0000F6DB04E030205A460B9990476D1CB8F181
:101D10000001A8F10108F5DC05E016F8010B5A46B0
:101D20000B9990476D1CB9F10001A9F10109F4DC90
:101D3000641C65E7092801000123934018400B400B
:101D4000984201D001207047002070478188C088E8
:101D5000814201D1012070470020704781880289AB
:101D6000491CB1FBF2F302FB1311C088814201D17F
:101D7000012070470020704700B50B460246FFF770
:101D8000E5FF00280ED1907A00280BD1D188106889
:101D9000405C1870D0881189401CB0FBF1F301FB46
:101DA0001300D08000BD70B50D460446002312E03C
:101DB0002046FFF7CBFF00280FD1E1882068405C68
:101DC000E854E0882189401CB0FBF1F601FB1600C5
:101DD0005B1CE080DBB29342EAD370BD016000215E
:101DE0008180C18002818172704730B50D46044602
:101DF000FFF7B4FF50B9A18820684554A088218915
:101E0000401CB0FBF1F201FB1200A080A188E08829
:101E1000814208D12189401CB0FBF1F201FB120084
:101E2000E0800120A07230BD13B504486423012274
:101E300069460068FFF754FA00981CBD14000020A2
:101E4000102803D0402801D0202803D101460248A1
:101E5000FEF7DCBB7047000000080140FEF7EEFB18
:101E6000FFF752FCFFF79CFAFFF748FBFFF70AFB6E
:101E7000FFF76AFB0B48FEF795FF0BA0FFF792FEFA
:101E8000FEF744FA0D4C0E4E0025207838B10120A3
:101E9000FEF750FA31880BA0FFF784FE2570FEF79D
:101EA0009DF9F2E72400002053544D33322053545F
:101EB000415254202E2E2E200D0A0000000000203A
:101EC0001000002025640D0A00000000202803D027
:101ED000102801D0082803D101460248FEF796BB1E
:101EE00070470000000C01400000000000000000EE
:101EF00001020304060708090000000001020304B0
:101F0000201F00080000002024000000C41B00085F
:101F1000441F00082400002014050000D41B000802
:101F2000000000000000000000000000A4000020ED
:101F300000000000640000200000000000A24A042D
:041F4000000000009D
:04000005080000ED02
:00000001FF
