:020000040800F2
:100000003805002001010008B3140008ED120008B3
:10001000B114000875010008D9190008000000009B
:10002000000000000000000000000000351500087E
:10003000C902000800000000D514000837150008A8
:100040001B0100081B0100081B0100081B01000820
:100050001B0100081B0100081B0100081B01000810
:100060001B0100081B0100081B0100081B01000800
:100070001B0100081B0100081B0100081B010008F0
:100080001B0100081B0100081B0100081B010008E0
:100090001B0100081B0100081B0100081B010008D0
:1000A0001B0100081B0100081B0100081B010008C0
:1000B000F11500081B0100081B0100081B010008C6
:1000C0001B0100081B0100081B0100081B010008A0
:1000D0001B010008CD1900081B0100081B010008C6
:1000E000CB0200081B0100081B010008DFF80CD040
:1000F00000F02EF8004800479D1C0008380500203D
:100100000648804706480047FEE7FEE7FEE7FEE7B1
:10011000FEE7FEE7FEE7FEE7FEE7FEE7A9150008BB
:10012000ED00000830B50B460146002020220124D6
:1001300009E021FA02F59D4205D303FA02F5491BB5
:1001400004FA02F52844151EA2F10102F1DC30BDCB
:10015000064C074D06E0E06840F0010394E8070014
:1001600098471034AC42F6D3FFF7C4FF441D000893
:10017000641D0008FEE7000010B5104CB0F5806F5C
:10018000618809D0B0F5006F09D0B0F5805F09D063
:10019000B0F5005F0FD008E081F4805004E081F4F6
:1001A000807001E081F010006080608801F094F9B7
:1001B0000120207010BD81F00100F5E70000002053
:1001C00001494880704700000000002070B51E48BB
:1001D00001F0E9FC002836D11B4801F0D3FC44288B
:1001E00031D11A49184801F0F4FC184C18A02178B4
:1001F00001F0F4FB207844280FD1611C124801F073
:10020000E8FC617814A001F0E9FB60780E49401E1B
:10021000C2B20A390C4801F0F3FC0B4D0A3D2878B4
:1002200010B9002000F030F8287801280BD1687848
:10023000A97841EA0020A08001F04EF9A088BDE82D
:100240007040FFF7BDBF70BD2801002004000020F2
:1002500025640A0D0000000025640D0A000000005E
:10026000074910B5322201F13C0001F0E4FC0549D8
:100270000122881E8068BDE8104000F093BF000096
:10028000EC000020060000200D4944220A704A704C
:1002900005228A70002288B10120C87009480088B0
:1002A000030A0B7148718A71FF20C87104496423E5
:1002B000A1F10C000822806800F0BABFCA70EDE717
:1002C0001000002018000020704710B54FF4806027
:1002D00000F05CF84FF4006000F058F84FF48050E4
:1002E00000F054F8BDE810404FF4005000F04EB854
:1002F00010B590F821100024022903D00421816355
:1003000001243DE001680A6822F00E020A600168DB
:100310000A6822F001020A601A4A0168914201D17A
:10032000012121E0174A1432914201D110211BE032
:10033000144A2832914201D1891515E0114A3C3204
:10034000914201D189140FE00E4A5032914202D1FC
:100350004FF4803108E00B4A6432914202D14FF4ED
:10036000801101E04FF08071064A083A5160012186
:1003700080F82110002180F82010416B01B18847DE
:10038000204610BD08000240FFF7F6BE044910B534
:100390000A68024202D00860FFF7F6FF10BD0000B5
:1003A000140401402DE9F84FDFF890A100220AF172
:1003B000040B144601274FF00F090BF1040E00BF88
:1003C0000B6807FA04F52B40AB4274D1DFF870C11B
:1003D0004E68A6EB0C0866452BD00DDC032E34D0FE
:1003E00005DC36B3012E19D0022E2FD11BE0112EC1
:1003F00016D0122E2AD119E0B8F5881F19D006DCC4
:10040000B8F5803F15D0B8F5801F1FD111E0B8F5C1
:10041000001F0ED0B8F5041F18D10AE0CA6815E015
:10042000CA68121D12E0CA6808320FE0CA680C32AE
:100430000CE08A682AB1012A4FF0080203D0456116
:1004400004E0042202E0056100E00022FF2B01D855
:10045000064601E000F104064FEA840501D9A5F142
:100460002005D6F800C009FA05F82CEA080C02FAB3
:1004700005F54CEA050CC6F800C04D68ED0057D5EF
:10048000304DAE6946F00106AE61AD6924F0030659
:1004900005F0010500952C4D06EB050CDCF8085025
:1004A000A6074FEA167809FA08F6B543274EB04278
:1004B00002D1002610E03BE0254EB04201D10126DA
:1004C0000AE0244EB04201D1022605E0224EB0429D
:1004D00001D1032600E0042606FA08F62E43CCF8E4
:1004E00008604D68DAF80060ED03554601D51E43FB
:1004F00000E09E432E604D68DBF80060AD035D4672
:1005000001D51E4300E09E432E604D68DEF800607A
:10051000ED02754601D51E4300E09E432E604D68F6
:10052000AD020E4D2E6801D51E4300E09E432E60A5
:10053000641C102CFFF444AFBDE8F88F00040140A8
:1005400000001110001002400000014000080140AE
:10055000000C014000100140001401400C04014057
:10056000C2684A40C26070470AB10161704709041D
:10057000FBE70000014800687047000020000020F1
:1005800002480168491C01607047000020000020FB
:10059000074810B5016841F010010160032000F028
:1005A0008BF8002000F006F800F018F8002010BDCD
:1005B0000020024010B5044607484FF47A710068E5
:1005C000B0FBF1F000F01FFB00222146501E00F0AE
:1005D00053F8002010BD0000240000201E4808B57C
:1005E000816941F001018161806900F001000090A2
:1005F000032000F061F8002211466FF00B0000F0BC
:100600003BF8002211466FF00A0000F035F8002296
:1006100011466FF0090000F02FF800221146501F1C
:1006200000F02AF800221146101F00F025F80022E1
:100630001146901E00F020F800221146501E00F0D6
:100640001BF80648416821F0E0614160416841F0D3
:100650000071416008BD0000001002400000014030
:1006600000F01F02012191404009800000F1E020CC
:10067000C0F8001170470000F0B40E4B1B680C4628
:10068000C3F30223C3F10705042D00D90425191D66
:10069000072901D2002300E0DB1E012606FA05F13E
:1006A000491E214099409E40761E16403143F0BCC1
:1006B00000F000BF0CED00E0064900F007020868FA
:1006C0004FF6FF03184040EA0220034A1043086037
:1006D000704700000CED00E00000FA052DE9F0473E
:1006E000DFF83C8105460E46D8F8000000F0070010
:1006F000B0420CD2D8F8001021F007013143C8F8FD
:100700000010D8F8000000F00700B04263D128784C
:10071000444C800705D56068A96820F0F0000843C4
:1007200060602878C00745D06868012816D0216825
:10073000022816D0890700294DDA616821F00301EB
:1007400001436160FFF716FF6968074641F2883090
:1007500001290FD00229814619D027E02168890399
:10076000E9E78901E7E700BFFFF704FFC11B49453F
:1007700001D918E081466068C0F381000128F3D1F7
:1007800018E000BFFFF7F6FEC11B49450BD86068B3
:10079000C0F381000228F5D10CE000BFFFF7EAFEAC
:1007A000C11B494502D90320BDE8F087606810F0FD
:1007B0000C0FF3D1D8F80010404601F00701B14208
:1007C0000BD9016821F0070131430160006800F096
:1007D0000700B04201D00120E6E72878400705D5A0
:1007E0006068E96820F4E0600843606028780007EA
:1007F00006D56068296920F4605040EAC100606055
:1008000000F03CF86168084AC1F30311515CC8402C
:10081000064908600020FFF7CDFE0020C4E7000075
:1008200000200240001002402C1D0008240000207F
:100830000148006870470000240000200448054972
:1008400000684968044AC1F30221515CC8407047FE
:1008500024000020001002403C1D00080448054907
:1008600000684968044AC1F3C221515CC84070471E
:1008700024000020001002403C1D000810B512A307
:1008800085B00FCB8DE80F0013A0144B00680490C7
:100890005A68134802F00C0104290FD008290DD121
:1008A000C2F38344D2031DF8041009D55A6804AB7F
:1008B000C2F340429A5CB0FBF2F0484305B010BD71
:1008C00008484843FAE70000020304050607080940
:1008D0000A0B0C0D0E0F1010010200000010024058
:1008E00000127A0000093D002DE9F84F0446007817
:1008F000B94DC00748D06868C0F38100012807D00F
:100900006868C0F38100022809D16868C00306D571
:100910002868800338D5606800286FD034E06068AC
:10092000B0F5803F0BD010B1B0F5A02F11D02868E2
:1009300020F480302860286820F4802002E02868B5
:1009400040F480302860606888B1FFF713FE0646E7
:1009500009E0286840F480202860F0E7FFF70AFEED
:10096000801B642875D828688003F7D50CE0FFF752
:1009700001FE064605E000BFFFF7FCFD801B642872
:10098000F0D828688003F7D42078944E80074FF081
:1009900001094FF000083BD5686810F00C0F07D034
:1009A0006868C0F38100022809D16868C00306D4D2
:1009B0002868800714D5206901281FD110E020691C
:1009C000B0B1C6F80090FFF7D5FD074605E000BFBF
:1009D000FFF7D0FDC01B0228C4D828688007F7D5D0
:1009E0002868616920F0F80040EAC10028600FE043
:1009F000C6F80080FFF7BEFD074606E0E9E000BF4D
:100A0000FFF7B8FDC01B022823D828688007F7D459
:100A1000207800072CD57248A169D9B1C0F80090A0
:100A2000FFF7A8FD074604E0FFF7A4FDC01B02285E
:100A30000FD8686A8007F7D56A484FF4FA51006802
:100A4000B0FBF1F0009000BF0098411E0091FAD277
:100A50000EE080E0C0F80080FFF78CFD074604E060
:100A6000FFF788FDC01B022875D8686A8007F7D495
:100A70002078400760D5E8690027C00008D4E869FD
:100A800040F08050E861E869012700F08050009054
:100A900055480168C90513D40168834641F4807143
:100AA0000160FFF767FD824606E000BFFFF762FDC9
:100AB000A0EB0A0064284ED8DBF80000C005F5D58D
:100AC000E06801280AD008B1052813D0286A20F070
:100AD00001002862286A20F0040002E0286A40F041
:100AE00001002862E06841F2883B98B1FFF742FDBF
:100AF00082460BE0286A40F004002862EEE700BF5F
:100B0000FFF738FDA0EB0A0159455AD8286A80073B
:100B1000F6D50CE0FFF72EFD824605E0FFF72AFD33
:100B2000A0EB0A0159454CD8286A8007F6D41FB1BA
:100B3000E86920F08050E861E06988B36968C1F332
:100B40008101022945D00228C6F8608004D0FFF751
:100B500011FD044638E034E0FFF70CFD074604E0E1
:100B6000FFF708FDC01B02282BD828688001F7D4A6
:100B7000206AB0F5803F05D16868A16820F4003094
:100B800008436860D4E908010843696821F47411D6
:100B900008436860C6F86090FFF7ECFC044606E086
:100BA00015E000BFFFF7E6FC001B022809D8286803
:100BB0008001F7D50BE000BFFFF7DCFC001B02282B
:100BC00002D90320BDE8F88F28688001F4D4002002
:100BD000F8E70120F6E70000001002400000424262
:100BE0008004424224000020007000404FF0E021C9
:100BF0000428086903D020F004000861704740F021
:100C00000400FAE7704710B5401EB0F1807F01D3B1
:100C1000012010BD4FF0E02460610F21601700F04B
:100C200049FC0020A06107202061002010BD10B504
:100C3000FFF7E8FF10BD7047704730B590F83C20D3
:100C4000012A20D0012280F83C20022380F83D3088
:100C500003685C6824F070045C6003685C680D687D
:100C60002C435C6003689C6824F080049C600368EB
:100C70009C6849680C439C6080F83D20002180F806
:100C80003C10084630BD022030BD10B5040003D032
:100C900094F83D0010B107E0012010BD002084F859
:100CA0003C00204600F00CF8022084F83D00211D95
:100CB000206800F0A3FC012084F83D00002010BD56
:100CC00008B50068B0F1804F12D10A48C16941F0FF
:100CD0000101C161C069002200F0010000901146CD
:100CE0001C20FFF7C9FCBDE808401C20FFF7B8BC7A
:100CF00008BD0000001002400168CA6842F001020D
:100D0000CA600068016841F001010160002070477D
:100D100070B5044690F83C00012817D0012584F8EE
:100D20003C50022084F83D002068826822F077025F
:100D300022F47F4282600868502837D00DDC2028DA
:100D400059D005DC88B3102841D151E0022070BD94
:100D5000302853D040283AD13FE060282ED0702868
:100D60000BD0B0F5805F03D0B0F5005F2FD110E05D
:100D70002068816821F0070115E0CB68D1E90121E5
:100D8000206800F071FC2168886840F07700886076
:100D90001DE0CB68D1E90121206800F065FC2068E6
:100DA000816841F48041816011E01EE0CA684968B1
:100DB000206800F06BFC5021206806E0CA68496892
:100DC000206800F074FC6021206800F057FC84F873
:100DD0003D50002084F83C0070BDCA684968206816
:100DE00000F054FC40212068EFE700212068ECE788
:100DF00010212068E9E720212068E6E730212068FB
:100E0000E3E7704770B50446006801694FF00005DC
:100E1000C943890715D4C168C943890711D4E91E9C
:100E2000016101202077206880698007204602D078
:100E3000FFF7E7FF04E000F098F8204600F096F88E
:100E4000257720680169C943490717D4C168C94398
:100E5000490713D46FF00401016102202077206854
:100E6000806910F4407F204602D0FFF7CAFF04E0FB
:100E700000F07BF8204600F079F8257720680169BA
:100E8000C943090716D4C168C943090712D46FF0D2
:100E900008010161042020772068C069800720468E
:100EA00002D0FFF7AEFF04E000F05FF8204600F04C
:100EB0005DF8257720680169C943C90617D4C16860
:100EC000C943C90613D46FF01001016108202077CF
:100ED0002068C06910F4407F204602D0FFF791FFE0
:100EE00004E000F042F8204600F040F82577206842
:100EF0000169C943C90708D1C168C943C90704D1F9
:100F0000891E0161204600F033F820680169C94359
:100F1000090609D4C168C943090605D46FF08001E8
:100F200001612046FFF787FE20680169C943490631
:100F300009D4C168C943490605D46FF04001016175
:100F4000204600F021F820680169C94389060BD4C6
:100F5000C168C943890607D46FF0200101612046AA
:100F6000BDE87040FFF768BE70BD70477047000075
:100F70000068B0F1804F04D14FF400510148FFF7F1
:100F8000EFBA7047001001407047704770B50268B3
:100F900004461068D168536910F00F0F51D003F068
:100FA000010501F4907635435DD0C20705D0CA052E
:100FB00003D5E26B42F00102E263420705D5DA078E
:100FC00003D0E26B42F00202E263820705D5DA0742
:100FD00003D0E26B42F00402E263020705D5DA07B0
:100FE00003D0E26B42F00802E263E26B002A34D0E5
:100FF000800604D5880602D5204600F080FB2068D4
:101000004069E16BC0F3801001F008010143204604
:1010100024D000F066FB2068416949061AD5416971
:1010200021F040014161606BA0B11B494163606BDD
:10103000FFF75EF9002810D0606B416BBDE870408F
:10104000084783060FD58B060DD52046BDE87040B6
:1010500000F055BB2046FFF798FF70BDFFF795FFE6
:101060000020E06370BD030606D50B0604D52046BC
:10107000BDE8704000F046BC4006F3D54806F1D507
:10108000D168204621F04001D160202184F8391038
:1010900000F02BF970BD0000D316000870B50400F5
:1010A00004D094F83900002510B106E0012070BD8D
:1010B00084F83850204600F023F8242084F83900C2
:1010C0002068C16821F40051C160204600F062FB35
:1010D0002068016921F4904101612068416921F093
:1010E0002A0141612068C16841F40051C160E56393
:1010F000202084F8390084F83A00002070BD0000F8
:1011000070B5244E03680024234902200322234D96
:1011100086B0B34221D18B6943F480438B618969E6
:10112000039201F4804104910102CDE90010694667
:101130002846FFF737F92815CDE900046946284607
:101140000294FFF72FF9002211462520FFF794FAA9
:101150002520FFF785FA06B070BD114EB342FAD1D3
:10116000CB6943F40033CB61C969039201F40031C8
:1011700004910421CDE9001069462846FFF712F9D1
:101180000820CDE90004694628460294FFF70AF9D1
:10119000E1E7000000380140001002400008014073
:1011A0000044004090F83A30202B22D1F9B1F2B13E
:1011B00090F83830012B1CD081628285C2850021D5
:1011C000C163222280F83A2080F838100168CA688A
:1011D00042F48072CA6001684A6942F001024A61C1
:1011E0000068C16841F02001C16000207047012003
:1011F000704702207047000010B500680849884217
:101200000CD108480178084800F01CFD074801226D
:1012100004490068BDE81040FFF7C4BF10BD0000DE
:101220000038014006000020280100200C000020AA
:101230002DE9F843044690F839001F4616460D463E
:10124000202850D1A5B19EB194F8380001284AD089
:10125000012084F838004FF00008C4F83C802120B9
:1012600084F83900FFF786F9A6848146E68426E0F3
:101270000120BDE8F883E08C401EE084A0684B4666
:10128000B0F5805F4FF000024FF0800120460097DC
:1012900003D000F068FBE8B90DE000F064FBC8B9CA
:1012A00028882168C0F308004860206908B16D1CD7
:1012B00005E0AD1C03E0216815F8010B4860E08CE7
:1012C0000028D8D14B46002240212046009700F04C
:1012D0004AFB08B10320CCE7202084F8390084F8C9
:1012E00038800020C5E70220C3E77047FEE7000012
:1012F000F0B5274885B0816941F0100181618169AD
:1013000001F010010491816941F00401816181695A
:1013100001F004010491816941F008018161806953
:101320001C4E00F008004FF40054049000222146A7
:101330003046FFF719F9184F002278213846FFF799
:1013400013F900940124032569463046039501945E
:10135000FFF728F84FF470500090104801900020DB
:10136000029069463846FFF71DF87820CDE9000461
:10137000694603953846FFF715F8002211462820E4
:10138000FFF77AF92820FFF76BF905B0F0BD0000F0
:101390000010024000100140000C0140000031101C
:1013A00010B5184886B04FF08041016048F6A04162
:1013B0000024C0E9011440F2F311C0E903148021B4
:1013C0008161FFF762FC18B13F210FA000F005FB1F
:1013D0004FF48050009069460A48FFF799FC18B115
:1013E000452109A000F0F9FA049404A905480594E0
:1013F000FFF723FC002803D04C2103A000F0EDFAF6
:1014000006B010BD2C0000202E2E2F5372632F74B7
:10141000696D2E63000000000D4810B50B49016096
:101420004FF4E1314160002181600C22C160C0E9CC
:1014300004128161C161FFF731FE002805D0BDE8CB
:101440001040432103A000F0C8BA10BD003801408D
:101450006C0000202E2E2F5372632F7573617274EF
:101460002E6300000D4810B50B4901604FF4E131C7
:101470004160002181600C22C160C0E904128161D9
:10148000C161FFF70BFE002805D0BDE810405621D2
:1014900003A000F0A2BA10BD00440040AC00002040
:1014A0002E2E2F5372632F75736172742E6300009A
:1014B000FEE770470907090E002806DA00F00F0062
:1014C00000F1E02080F8141D704700F1E02080F862
:1014D000001470477047000070B5154C0546208811
:1014E000A84223D00022294600F042FB10B1082078
:1014F00000F00CFC04222946208800F039FB10B1D2
:10150000102000F003FC08222946208800F030FB60
:1015100010B1202000F0FAFB0C222946208800F0B0
:1015200027FB10B1402000F0F1FB258070BD0000CA
:1015300018000020704710B5FFF722F8BDE81040F2
:10154000FFF775BB30B58FB00225012004900095E0
:101550001020059000244FF4E010CDE908400795D5
:101560006846FFF7C1F900B1FEE70F200A90CDE908
:101570000B540D9401210AA80E94FFF7AFF800B1A7
:10158000FEE7FFF755F94FF47A71B0FBF1F0FFF782
:101590003AFB0420FFF72AFB00221146501EFFF7FA
:1015A0006BF80FB030BD00000D48016841F001013B
:1015B000016041680B4A1140416001680A4A1140CC
:1015C0000160016821F480210160416821F4FE017D
:1015D00041604FF41F0181600449C00308607047F7
:1015E000001002400000FFF8FFFFF6FE08ED00E0EB
:1015F0000148FFF707BC00002C000020F0B502688E
:10160000164B174C174D4FF08047984205D0B84203
:1016100003D0A04201D0A84203D122F070064A684C
:101620003243984205D0B84203D0A04201D0A8422C
:1016300003D122F44074CA68224322F080044A692C
:10164000224302608A68C2620A688262984201D1BB
:101650000969016301214161F0BD0000002C0140D6
:10166000000400400008004010B5846842EA0322EC
:1016700024F47F440A432243826010BD826822F032
:1016800070020A4342F007018160704710B5036A97
:10169000046A24F001040462846924F0F00444EA3A
:1016A000021423F00A020A438461026210BD10B5DD
:1016B000036A23F0100303628369046A23F470430E
:1016C00043EA023224F0A00343EA0111826101627D
:1016D00010BD10B5406A0021C185C184FFF755FCDB
:1016E00010BD0168CA6822F49072CA6001684A6934
:1016F00022F001024A61202180F83A10704710B5AB
:1017000090F83A10222901D0022010BD8168B1F56D
:10171000805F11D00169002901681FD0496801F07C
:101720007F03816A4A1C82620B70C18D491E0904C5
:10173000090CC18518D02BE00269816A002A026871
:10174000526805D0D2B20A80816A491C8162ECE7F6
:10175000C2F308020A80816A891CF7E74A68816A35
:101760004B1C83620A70E0E70168CA6822F020021D
:10177000CA600168CA6822F48072CA6001684A6956
:1017800022F001024A61202180F83A10FFF734FD6F
:10179000002010BD2DE9F041044600680169E268AF
:1017A00021F44051114301612169A0680843616936
:1017B00008432168CA6841F20C639A430243CA6035
:1017C00020684169A26921F44071114341614C498B
:1017D00020686425322688423CD1FFF73FF800EBB1
:1017E000C00101EB001061688900B0FBF1F7FFF761
:1017F00035F800EBC00101EB00106168B0468900CC
:10180000B0FBF1F0B0FBF5F06FF01801484307EBC7
:10181000800106EB0110B0FBF5F000F0F006FFF7D9
:101820001DF800EBC00101EB001061688900B0FBFE
:10183000F1F0B0FBF5F006EB0016FFF70FF800EB48
:10184000C00101EB001061688900B0FBF1F7FFF700
:1018500005F83BE0FEF7F2FF00EBC00101EB0010E2
:1018600061688900B0FBF1F7FEF7E8FF00EBC0010B
:1018700001EB00106168B0468900B0FBF1F0B0FBED
:10188000F5F06FF01801484307EB800106EB0110FB
:10189000B0FBF5F000F0F006FEF7D0FF00EBC00162
:1018A00001EB001061688900B0FBF1F0B0FBF5F0CE
:1018B00006EB0016FEF7C2FF00EBC00101EB0010C3
:1018C00061688900B0FBF1F7FEF7B8FF00EBC001DB
:1018D00001EB001061688900B0FBF1F0B0FBF5F09E
:1018E0006FF01801484307EB800108EB0110B0FBD3
:1018F000F5F0216800F00F0030448860BDE8F08109
:101900000038014090F83910212901D00220704799
:101910008168B1F5805F016A0BD04A1C02620268DF
:1019200009785160C18C491E0904090CC1840ED08C
:1019300017E009880268C1F30801516001690029B4
:10194000016A02D0491C0162ECE7891CFBE70168CF
:10195000CA6822F08002CA600068C16841F0400194
:10196000C160002070472DE9F041984617460E46A9
:101970000446069D1DE0681C1BD02DB1FEF7FAFD44
:10198000A0EB0800A84214D92068C16821F4D071E6
:10199000C1602068416921F001014161202084F883
:1019A000390084F83A00002084F838000320BDE8AC
:1019B000F0812068006836EA000004D00020B842B8
:1019C000D9D00020F3E70120F9E700000148FFF734
:1019D000DDBA00006C000020FEE7FEE70FB4054B07
:1019E00010B503A9044A029800F018F810BC5DF87D
:1019F00014FB0000851C00082800002002E008C835
:101A0000121F08C1002AFAD170477047002001E078
:101A100001C1121F002AFBD1704700002DE9FF4FC2
:101A200089B09B460446002506E025280BD05A467F
:101A30000B999047641C6D1C20780028F5D10DB0DF
:101A40002846BDE8F08F0027B8460122474900E04C
:101A5000074314F8013F203B02FA03F00842F7D194
:101A600020782E2819D114F8010F47F004072A28EE
:101A70000ED06FF02F022078A0F1300109290CD888
:101A800008EB880102EB410100EB0108641CF2E75E
:101A90000A98641C50F8048B0A9020780028CED055
:101AA000642808D0692806D075281ED05A460B999C
:101AB00090476D1C58E00A994FF00A0901C90A9134
:101AC000002802DA40422D2102E0390504D52B21FD
:101AD0008DF82010012103E0F90704D02021F7E759
:101AE0008A4608AE0DE00021FAE70A994FF00A098C
:101AF00001C90A91F7E74946FEF714FB303106F8B1
:101B0000011D0028F7D1ADEB060000F12009780790
:101B100001D44FF00108C84502DDA8EB090000E040
:101B200000208046002706E008A85A46C05D0B99B1
:101B300090476D1C7F1C5745F6DB04E030205A4669
:101B40000B9990476D1CB8F10001A8F10108F5DC74
:101B500005E016F8010B5A460B9990476D1CB9F138
:101B60000001A9F10109F4DC641C65E70928010002
:101B70000123934018400B40984201D00120704748
:101B80000020704710B5024600F00DF848B9D08823
:101B900011680B5C1189401CB0FBF1F401FB1400CF
:101BA000D080184610BD8188C088814201D10120B3
:101BB00070470020704781880289491CB1FBF2F30D
:101BC00002FB1311C088814201D10120704700201F
:101BD000704700B50B460246FFF7E5FF00280ED11F
:101BE000907A00280BD1D1881068405C1870D0889A
:101BF0001189401CB0FBF1F301FB1300D08000BD44
:101C000070B50D460446002312E02046FFF7CBFFD7
:101C100000280FD1E1882068405CE854E0882189E1
:101C2000401CB0FBF1F601FB16005B1CE080DBB250
:101C30009342EAD370BD016000218180C18002819E
:101C40008172704730B50D460446FFF7B4FF50B9B6
:101C5000A18820684554A0882189401CB0FBF1F27E
:101C600001FB1200A080A188E088814208D121896F
:101C7000401CB0FBF1F201FB1200E0800120A072D9
:101C800030BD000013B50448642301226946006892
:101C9000FFF7CEFA00981CBD1C000020FEF778FC70
:101CA000FFF750FCFFF724FBFFF7B6FBFFF7DAFB6B
:101CB000FFF776FB0B48FFF71FF80BA0FFF78EFE30
:101CC000FEF7CEFA0D4C0E4E0025207838B10120DB
:101CD000FEF7DAFA31880BA0FFF780FE2570FEF7D9
:101CE00075FAF2E72C00002053544D333220535440
:101CF000415254202E2E2E200D0A000000000020FC
:101D00001800002025640D0A00000000082805D0F6
:101D1000102803D0202801D0402803D101460248D2
:101D2000FEF71EBC70470000000C014000000000E0
:101D3000000000000102030406070809000000007B
:101D400001020304641D0008000000202C000000B4
:101D5000FC190008901D00082C0000200C05000054
:101D60000C1A000800000000000000000000000045
:101D70006C000020000000000000000000000000D7
:101D8000AC0000200000000000A24A040000000097
:04000005080000ED02
:00000001FF
