:020000040800F2
:10000000D004002001010008231100085F0F000840
:100010002111000875010008B91400080000000053
:100020000000000000000000000000004711000870
:100030007701000800000000451100084911000880
:100040001B0100081B0100081B0100081B01000820
:100050001B0100081B0100081B0100081B01000810
:100060001B0100081B0100081B0100081B01000800
:100070001B0100081B0100081B0100081B010008F0
:100080001B0100081B0100081B0100081B010008E0
:100090001B0100081B0100081B0100081B010008D0
:1000A0001B0100081B0100081B0100081B010008C0
:1000B000011200081B0100081B0100081B010008B9
:1000C0001B0100081B0100081B0100081B010008A0
:1000D0001B0100081B0100081B0100081B01000890
:1000E000790100081B0100081B010008DFF80CD093
:1000F00000F02EF800480047A9160008D0040020A0
:100100000648804706480047FEE7FEE7FEE7FEE7B1
:10011000FEE7FEE7FEE7FEE7FEE7FEE7B9110008AF
:10012000ED00000830B50B460146002020220124D6
:1001300009E021FA02F59D4205D303FA02F5491BB5
:1001400004FA02F52844151EA2F10102F1DC30BDCB
:10015000064C074D06E0E06840F0010394E8070014
:1001600098471034AC42F6D3FFF7C4FF20170008BD
:1001700040170008FEE7704710B54FF4806000F0AC
:100180001FF84FF4006000F01BF84FF4805000F0AF
:1001900017F8BDE810404FF4005000F011B831B529
:1001A00000F002F9009C0546601C00D0641C00F0C1
:1001B000FBF8401BA042FAD338BD01F049BA000059
:1001C000044910B50A68024202D00860FFF7F5FF43
:1001D00010BD0000140401402DE9F84FDFF890A194
:1001E00000220AF1040B144601274FF00F090BF10E
:1001F000040E00BF0B6807FA04F52B40AB4274D124
:10020000DFF870C14E68A6EB0C0866452BD00DDCFC
:10021000032E34D005DC36B3012E19D0022E2FD197
:100220001BE0112E16D0122E2AD119E0B8F5881F26
:1002300019D006DCB8F5803F15D0B8F5801F1FD166
:1002400011E0B8F5001F0ED0B8F5041F18D10AE070
:10025000CA6815E0CA68121D12E0CA6808320FE0C9
:10026000CA680C320CE08A682AB1012A4FF00802F1
:1002700003D0456104E0042202E0056100E00022B1
:10028000FF2B01D8064601E000F104064FEA840581
:1002900001D9A5F12005D6F800C009FA05F82CEA25
:1002A000080C02FA05F54CEA050CC6F800C04D68CA
:1002B000ED0057D5304DAE6946F00106AE61AD692F
:1002C00024F0030605F0010500952C4D06EB050C06
:1002D000DCF80850A6074FEA167809FA08F6B54385
:1002E000274EB04202D1002610E03BE0254EB0423E
:1002F00001D101260AE0244EB04201D1022605E0D8
:10030000224EB04201D1032600E0042606FA08F688
:100310002E43CCF808604D68DAF80060ED035546CE
:1003200001D51E4300E09E432E604D68DBF800605F
:10033000AD035D4601D51E4300E09E432E604D682F
:10034000DEF80060ED02754601D51E4300E09E43D5
:100350002E604D68AD020E4D2E6801D51E4300E0A3
:100360009E432E60641C102CFFF444AFBDE8F88F50
:100370000004014000001110001002400000014084
:1003800000080140000C0140001001400014014031
:100390000C040140C2684A40C26070470AB1016162
:1003A00070470904FBE7000001480068704700003F
:1003B0000400002002480168491C016070470000E9
:1003C00004000020074810B5016841F010010160E9
:1003D000032000F08BF8002000F006F800F018F879
:1003E000002010BD0020024010B5044607484FF41D
:1003F0007A710068B0FBF1F000F01FFB002221468B
:10040000501E00F053F8002010BD0000080000202E
:100410001E4808B5816941F001018161806900F0E1
:1004200001000090032000F061F8002211466FF0F7
:100430000B0000F03BF8002211466FF00A0000F0BC
:1004400035F8002211466FF0090000F02FF8002265
:100450001146501F00F02AF800221146101F00F02C
:1004600025F800221146901E00F020F800221146C7
:10047000501E00F01BF80648416821F0E061416021
:10048000416841F08061416008BD000000100240F9
:100490000000014000F01F0201219140400980004E
:1004A00000F1E020C0F8001170470000F0B40E4BDE
:1004B0001B680C46C3F30223C3F10705042D00D9C2
:1004C0000425191D072901D2002300E0DB1E0126A7
:1004D00006FA05F1491E214099409E40761E1640BD
:1004E0003143F0BC00F01EBE0CED00E0064900F008
:1004F000070208684FF6FF03184040EA0220034A4B
:1005000010430860704700000CED00E00000FA05A1
:100510002DE9F047DFF83C8105460E46D8F800008B
:1005200000F00700B0420CD2D8F8001021F007010B
:100530003143C8F80010D8F8000000F00700B042BE
:1005400063D12878444C800705D56068A96820F0FD
:10055000F000084360602878C00745D0686801282B
:1005600016D02168022816D0890700294DDA616863
:1005700021F0030101436160FFF716FF6968074638
:1005800041F2883001290FD00229814619D027E095
:1005900021688903E9E78901E7E700BFFFF704FF66
:1005A000C11B494501D918E081466068C0F381004C
:1005B0000128F3D118E000BFFFF7F6FEC11B494543
:1005C0000BD86068C0F381000228F5D10CE000BFB1
:1005D000FFF7EAFEC11B494502D90320BDE8F087B9
:1005E000606810F00C0FF3D1D8F80010404601F00D
:1005F0000701B1420BD9016821F0070131430160C5
:10060000006800F00700B04201D00120E6E728783A
:10061000400705D56068E96820F4E0600843606041
:100620002878000706D56068296920F4605040EA00
:10063000C100606000F03CF86168084AC1F3031132
:10064000515CC840064908600020FFF7CDFE00203D
:10065000C4E7000000200240001002400817000814
:1006600008000020014800687047000008000020D2
:100670000448054900684968044AC1F30221515CF5
:10068000C8407047080000200010024018170008FA
:100690000448054900684968044AC1F3C221515C15
:1006A000C8407047080000200010024018170008DA
:1006B00010B512A385B00FCB8DE80F0013A0144B1B
:1006C000006804905A68134802F00C0104290FD006
:1006D00008290DD1C2F38344D2031DF8041009D5B3
:1006E0005A6804ABC2F340429A5CB0FBF2F0484354
:1006F00005B010BD08484843FAE7000002030405AE
:10070000060708090A0B0C0D0E0F1010010200005D
:100710000010024000127A0000093D002DE9F84F58
:1007200004460078B94DC00748D06868C0F381001E
:10073000012807D06868C0F38100022809D16868E1
:10074000C00306D52868800338D5606800286FD0BC
:1007500034E06068B0F5803F0BD010B1B0F5A02F49
:1007600011D0286820F480302860286820F4802088
:1007700002E0286840F480302860606888B1FFF7A4
:1007800013FE064609E0286840F480202860F0E760
:10079000FFF70AFE801B642875D828688003F7D508
:1007A0000CE0FFF701FE064605E000BFFFF7FCFD89
:1007B000801B6428F0D828688003F7D42078944EF2
:1007C00080074FF001094FF000083BD5686810F032
:1007D0000C0F07D06868C0F38100022809D168684F
:1007E000C00306D42868800714D5206901281FD1CA
:1007F00010E02069B0B1C6F80090FFF7D5FD0746BC
:1008000005E000BFFFF7D0FDC01B0228C4D8286850
:100810008007F7D52868616920F0F80040EAC10038
:1008200028600FE0C6F80080FFF7BEFD074606E02F
:10083000E9E000BFFFF7B8FDC01B022823D82868F5
:100840008007F7D4207800072CD57248A169D9B168
:10085000C0F80090FFF7A8FD074604E0FFF7A4FDED
:10086000C01B02280FD8686A8007F7D56A484FF482
:10087000FA510068B0FBF1F0009000BF0098411EF3
:100880000091FAD20EE080E0C0F80080FFF78CFD06
:10089000074604E0FFF788FDC01B022875D8686A88
:1008A0008007F7D42078400760D5E8690027C000AA
:1008B00008D4E86940F08050E861E869012700F059
:1008C0008050009055480168C90513D401688346DB
:1008D00041F480710160FFF767FD824606E000BFCA
:1008E000FFF762FDA0EB0A0064284ED8DBF8000099
:1008F000C005F5D5E06801280AD008B1052813D055
:10090000286A20F001002862286A20F0040002E032
:10091000286A40F001002862E06841F2883B98B103
:10092000FFF742FD82460BE0286A40F0040028628F
:10093000EEE700BFFFF738FDA0EB0A0159455AD892
:10094000286A8007F6D50CE0FFF72EFD824605E009
:10095000FFF72AFDA0EB0A0159454CD8286A800709
:10096000F6D41FB1E86920F08050E861E06988B3EF
:100970006968C1F38101022945D00228C6F8608068
:1009800004D0FFF711FD044638E034E0FFF70CFD1A
:10099000074604E0FFF708FDC01B02282BD8286893
:1009A0008001F7D4206AB0F5803F05D16868A1685E
:1009B00020F4003008436860D4E9080108436968FE
:1009C00021F4741108436860C6F86090FFF7ECFCEE
:1009D000044606E015E000BFFFF7E6FC001B022816
:1009E00009D828688001F7D50BE000BFFFF7DCFCD1
:1009F000001B022802D90320BDE8F88F2868800177
:100A0000F4D40020F8E70120F6E7000000100240CF
:100A10000000424280044242080000200070004072
:100A20004FF0E0210428086903D020F00400086199
:100A3000704740F00400FAE7704710B5401EB0F16F
:100A4000807F01D3012010BD4FF0E02460610F21B1
:100A5000601700F067FB0020A061072020610020E4
:100A600010BD10B5FFF7E8FF10BD7047704730B5F7
:100A700090F83C20012A20D0012280F83C2002235B
:100A800080F83D3003685C6824F070045C600368A3
:100A90005C680D682C435C6003689C6824F08004EB
:100AA0009C6003689C6849680C439C6080F83D200A
:100AB000002180F83C10084630BD022030BD10B542
:100AC000040003D094F83D0010B107E0012010BDF0
:100AD000002084F83C00204600F00CF8022084F846
:100AE0003D00211D206800F091FB012084F83D00AD
:100AF000002010BD08B50068B0F1804F12D10A483F
:100B0000C16941F00101C161C069002200F001002A
:100B1000009011461C20FFF7C9FCBDE808401C20CE
:100B2000FFF7B8BC08BD0000001002400168CA68A9
:100B300042F00102CA600068016841F001010160F1
:100B40000020704770B5044690F83C00012817D08B
:100B5000012584F83C50022084F83D00206882681A
:100B600022F0770222F47F4282600868502837D052
:100B70000DDC202859D005DC88B3102841D151E084
:100B8000022070BD302853D040283AD13FE0602881
:100B90002ED070280BD0B0F5805F03D0B0F5005F89
:100BA0002FD110E02068816821F0070115E0CB68A3
:100BB000D1E90121206800F05FFB2168886840F0DE
:100BC000770088601DE0CB68D1E90121206800F042
:100BD00053FB2068816841F48041816011E01EE090
:100BE000CA684968206800F059FB5021206806E077
:100BF000CA684968206800F062FB6021206800F044
:100C000045FB84F83D50002084F83C0070BDCA6864
:100C10004968206800F042FB40212068EFE700218E
:100C20002068ECE710212068E9E720212068E6E74A
:100C300030212068E3E7704770B504460068016919
:100C40004FF00005C943890715D4C168C943890716
:100C500011D4E91E01610120207720688069800796
:100C6000204602D0FFF7E7FF04E000F098F82046A6
:100C700000F096F8257720680169C943490717D421
:100C8000C168C943490713D46FF004010161022010
:100C900020772068806910F4407F204602D0FFF75B
:100CA000CAFF04E000F07BF8204600F079F82577D1
:100CB00020680169C943090716D4C168C9430907F7
:100CC00012D46FF008010161042020772068C06908
:100CD0008007204602D0FFF7AEFF04E000F05FF887
:100CE000204600F05DF8257720680169C943C906F0
:100CF00017D4C168C943C90613D46FF0100101614C
:100D0000082020772068C06910F4407F204602D078
:100D1000FFF791FF04E000F042F8204600F040F8B1
:100D2000257720680169C943C90708D1C168C9434B
:100D3000C90704D1891E0161204600F033F82068FC
:100D40000169C943090609D4C168C943090605D424
:100D50006FF0800101612046FFF787FE206801697E
:100D6000C943490609D4C168C943490605D46FF08F
:100D700040010161204600F021F820680169C94363
:100D800089060BD4C168C943890607D46FF02001D6
:100D900001612046BDE87040FFF768BE70BD704736
:100DA000704700000068B0F1804F04D14FF400514B
:100DB0000148FFF7EFBA704700100140704770B567
:100DC000040004D094F83900002510B106E0012099
:100DD00070BD84F83850204600F022F8242084F8B2
:100DE00039002068C16821F40051C160204600F03C
:100DF00079FA2068016921F4904101612068416914
:100E000021F02A0141612068C16841F40051C160AC
:100E1000E563202084F8390084F83A00002070BD92
:100E200070B51C4E036800241B49022003221B4D91
:100E300086B0B34211D18B6943F480438B618969D9
:100E4000039201F4804104910102CDE9001069464A
:100E50002846FFF7C1F9281513E0114EB34217D108
:100E6000CB6943F40033CB61C969039201F40031CB
:100E700004910421CDE9001069462846FFF7ACF93A
:100E80000820CDE90004694628460294FFF7A4F93A
:100E900006B070BD0038014000100240000801405B
:100EA000004400402DE9F843044690F839001F46FD
:100EB00016460D46202850D1A5B19EB194F83800B1
:100EC00001284AD0012084F838004FF00008C4F807
:100ED0003C80212084F83900FFF766FAA684814619
:100EE000E68426E00120BDE8F883E08C401EE08423
:100EF000A0684B46B0F5805F4FF000024FF08001D4
:100F00002046009703D000F0A5FAE8B90DE000F004
:100F1000A1FAC8B928882168C0F308004860206990
:100F200008B16D1C05E0AD1C03E0216815F8010B4C
:100F30004860E08C0028D8D14B4600224021204652
:100F4000009700F087FA08B10320CCE7202084F84E
:100F5000390084F838800020C5E70220C3E7FEE7A7
:100F6000F0B5274885B0816941F010018161816940
:100F700001F010010491816941F0040181618169EE
:100F800001F004010491816941F0080181618069E7
:100F90001C4E00F008004FF400540490002221463B
:100FA0003046FFF7FBF9184F002278213846FFF74B
:100FB000F5F9009401240325694630460395019410
:100FC000FFF70AF94FF4705000901048019000208C
:100FD000029069463846FFF7FFF87820CDE9000413
:100FE000694603953846FFF7F7F800221146282096
:100FF000FFF75CFA2820FFF74DFA05B0F0BD0000BE
:101000000010024000100140000C014000003110AF
:1010100010B5184886B04FF08041016048F6A041F5
:101020000024C0E9011440F2F311C0E90314802147
:101030008161FFF744FD18B13F210FA000F03DFA98
:101040004FF48050009069460A48FFF77BFD18B1C5
:10105000452109A000F031FA049404A9054805943B
:10106000FFF705FD002803D04C2103A000F025FA6E
:1010700006B010BD100000202E2E2F5372632F7467
:10108000696D2E63000000000D4810B50B4901602A
:101090004FF4E1314160002181600C22C160C0E960
:1010A00004128161C161FFF78AFE002805D0BDE806
:1010B0001040432103A000F000BA10BD00380140E9
:1010C000500000202E2E2F5372632F75736172749F
:1010D0002E6300000D4810B50B4901604FF4E1315B
:1010E0004160002181600C22C160C0E9041281616D
:1010F000C161FFF764FE002805D0BDE8104056210D
:1011000003A000F0DAB910BD0044004090000020B8
:101110002E2E2F5372632F75736172742E6300002D
:10112000FEE770470907090E002806DA00F00F00F5
:1011300000F1E02080F8141D704700F1E02080F8F5
:10114000001470477047704710B5FFF733F9BDE8DA
:101150001040FFF786BC30B58FB002250120049007
:1011600000951020059000244FF4E010CDE90840D0
:1011700007956846FFF7D2FA00B1FEE70F200A9004
:10118000CDE90B540D9401210AA80E94FFF7C0F984
:1011900000B1FEE7FFF766FA4FF47A71B0FBF1F0A9
:1011A000FFF74BFC0420FFF73BFC00221146501ECA
:1011B000FFF77CF90FB030BD0D48016841F0010127
:1011C000016041680B4A1140416001680A4A1140C0
:1011D0000160016821F480210160416821F4FE0171
:1011E00041604FF41F0181600449C00308607047EB
:1011F000001002400000FFF8FFFFF6FE08ED00E0DF
:101200000148FFF719BD000010000020F0B502688A
:10121000164B174C174D4FF08047984205D0B842F7
:1012200003D0A04201D0A84203D122F070064A6840
:101230003243984205D0B84203D0A04201D0A84220
:1012400003D122F44074CA68224322F080044A6920
:10125000224302608A68C2620A688262984201D1AF
:101260000969016301214161F0BD0000002C0140CA
:10127000000400400008004010B5846842EA0322E0
:1012800024F47F440A432243826010BD826822F026
:1012900070020A4342F007018160704710B5036A8B
:1012A000046A24F001040462846924F0F00444EA2E
:1012B000021423F00A020A438461026210BD10B5D1
:1012C000036A23F0100303628369046A23F4704302
:1012D00043EA023224F0A00343EA01118261016271
:1012E00010BD00002DE9F041044600680169E26884
:1012F00021F44051114301612169A06808436169EB
:1013000008432168CA6841F20C639A430243CA60E9
:1013100020684169A26921F44071114341614C493F
:1013200020686425322688423CD1FFF7B1F900EBF2
:10133000C00101EB001061688900B0FBF1F7FFF715
:10134000A7F900EBC00101EB00106168B04689000D
:10135000B0FBF1F0B0FBF5F06FF01801484307EB7C
:10136000800106EB0110B0FBF5F000F0F006FFF78E
:101370008FF900EBC00101EB001061688900B0FB40
:10138000F1F0B0FBF5F006EB0016FFF781F900EB8A
:10139000C00101EB001061688900B0FBF1F7FFF7B5
:1013A00077F93BE0FFF764F900EBC00101EB0010B7
:1013B00061688900B0FBF1F7FFF75AF900EBC00153
:1013C00001EB00106168B0468900B0FBF1F0B0FBA2
:1013D000F5F06FF01801484307EB800106EB0110B0
:1013E000B0FBF5F000F0F006FFF742F900EBC001AA
:1013F00001EB001061688900B0FBF1F0B0FBF5F083
:1014000006EB0016FFF734F900EBC00101EB00100A
:1014100061688900B0FBF1F7FFF72AF900EBC00122
:1014200001EB001061688900B0FBF1F0B0FBF5F052
:101430006FF01801484307EB800108EB0110B0FB87
:10144000F5F0216800F00F0030448860BDE8F081BD
:10145000003801402DE9F041984617460E460446F3
:10146000069D1DE0681C1BD02DB1FEF79DFFA0EB73
:101470000800A84214D92068C16821F4D071C16065
:101480002068416921F001014161202084F8390080
:1014900084F83A00002084F838000320BDE8F08189
:1014A0002068006836EA000004D00020B842D9D095
:1014B0000020F3E70120F9E7FEE7FEE70FB4054B54
:1014C00010B503A9044A029800F018F810BC5DF8A2
:1014D00014FB0000911600080C00002002E008C870
:1014E000121F08C1002AFAD170477047002001E09E
:1014F00001C1121F002AFBD1704700002DE9FF4FE8
:1015000089B09B460446002506E025280BD05A46A4
:101510000B999047641C6D1C20780028F5D10DB004
:101520002846BDE8F08F0027B8460122474900E071
:10153000074314F8013F203B02FA03F00842F7D1B9
:1015400020782E2819D114F8010F47F004072A2813
:101550000ED06FF02F022078A0F1300109290CD8AD
:1015600008EB880102EB410100EB0108641CF2E783
:101570000A98641C50F8048B0A9020780028CED07A
:10158000642808D0692806D075281ED05A460B99C1
:1015900090476D1C58E00A994FF00A0901C90A9159
:1015A000002802DA40422D2102E0390504D52B2122
:1015B0008DF82010012103E0F90704D02021F7E77E
:1015C0008A4608AE0DE00021FAE70A994FF00A09B1
:1015D00001C90A91F7E74946FEF7A4FD303106F844
:1015E000011D0028F7D1ADEB060000F120097807B6
:1015F00001D44FF00108C84502DDA8EB090000E066
:1016000000208046002706E008A85A46C05D0B99D6
:1016100090476D1C7F1C5745F6DB04E030205A468E
:101620000B9990476D1CB8F10001A8F10108F5DC99
:1016300005E016F8010B5A460B9990476D1CB9F15D
:101640000001A9F10109F4DC641C65E70928010027
:101650000E49B0F5806F0A8809D0B0F5006F09D047
:10166000B0F5805F09D0B0F5005F0CD008E082F4DF
:10167000805004E082F4807001E082F01000088065
:1016800008884880704782F00100F8E700000020D9
:1016900013B56423012269460248FFF703FC009852
:1016A0001CBD000090000020FEF78CFEFFF753FDEC
:1016B000FFF756FCFFF7E8FCFFF70CFDFFF7A8FC6F
:1016C0000848FFF733FA08A0FFF7F8FE0B4D4FF478
:1016D000FA740BA02988FFF7F1FE2046FEF75FFDA4
:1016E000F7E700001000002053544D3332205354CC
:1016F000415254202E2E2E200D0A00000200002000
:1017000025640D0A00000000000000000000000039
:101710000102030406070809000000000102030497
:10172000401700080000002010000000DC14000832
:101730005017000810000020C0040000EC1400083E
:10174000000000000000000000A24A0400000000A9
:04000005080000ED02
:00000001FF
